:020000040800F2
:1000000000000520E11A0008FD190008FF1900088A
:10001000011A0008031A0008051A00080000000071
:10002000000000000000000000000000B1B1000866
:10003000071A00080000000051B20008B5B200081D
:10004000311B0008311B0008311B0008311B000860
:10005000311B0008311B0008311B0008311B000850
:10006000311B0008311B0008311B0008311B000840
:10007000311B0008311B0008311B0008311B000830
:10008000311B0008311B0008311B0008311B000820
:10009000311B0008311B0008311B0008311B000810
:1000A000311B0008311B0008311B0008311B000800
:1000B000311B0008311B0008311B0008311B0008F0
:1000C000311B0008311B0008311B0008311B0008E0
:1000D000311B0008311B0008311B0008311B0008D0
:1000E000311B0008311B0008311B0008311B0008C0
:1000F000311B0008311B0008311B0008311B0008B0
:10010000311B0008311B0008311B0008311B00089F
:10011000311B0008311B0008091A0008311B0008B8
:10012000311B0008311B0008311B0008311B00087F
:10013000311B0008311B0008311B0008311B00086F
:10014000311B0008311B0008311B0008311B00085F
:10015000311B0008311B0008311B0008311B00084F
:10016000311B0008311B0008311B0008311B00083F
:10017000311B0008311B0008311B00080000000083
:10018000311B0008311B0008311B0008311B00081F
:10019000311B0008311B0008311B0008311B00080F
:1001A000151A0008311B0008211A0008311B00082D
:1001B000311B0008311B0008311B0008311B0008EF
:0801C000311B0008311B00088F
:1001D00010B5054C237833B9044B13B10448AFF381
:1001E00000800123237010BD4003002000000000A8
:1001F000E077030808B5034B1BB103490348AFF38D
:10020000008008BD0000000044030020E0770308E0
:1002100001F0FF01102A2BDB10F0070F08D010F8B7
:10022000013B013A8B422DD010F0070F42B3F6D1BB
:10023000F0B441EA012141EA014122F007047FF0D4
:1002400000070023F0E80256083C85EA010586EA2B
:10025000010685FA47F5A3FA87F586FA47F6A5FA67
:1002600087F68EB9EED1F0BC01F0FF0102F0070273
:1002700032B110F8013B013A83EA010313B1F8D11E
:100280000020704701387047002D06BF35460338FF
:10029000073815F0010F07D1013015F4807F02BF38
:1002A000013015F4C03F0130F0BC0138704700BF89
:1002B00081F0004102E000BF83F0004330B54FEA17
:1002C00041044FEA430594EA050F08BF90EA020F84
:1002D0001FBF54EA000C55EA020C7FEA645C7FEA17
:1002E000655C00F0E2804FEA5454D4EB5555B8BF3A
:1002F0006D420CDD2C4480EA020281EA030382EAAB
:10030000000083EA010180EA020281EA0303362D3C
:1003100088BF30BD11F0004F4FEA01314FF4801C0F
:100320004CEA113102D0404261EB410113F0004F21
:100330004FEA03334CEA133302D0524263EB4303D8
:1003400094EA050F00F0A780A4F10104D5F1200E76
:100350000DDB02FA0EFC22FA05F2801841F10001D1
:1003600003FA0EF2801843FA05F359410EE0A5F1A5
:1003700020050EF1200E012A03FA0EFC28BF4CF0D6
:10038000020C43FA05F3C01851EBE37101F000458C
:1003900007D54FF0000EDCF1000C7EEB00006EEB99
:1003A0000101B1F5801F1BD3B1F5001F0CD3490823
:1003B0005FEA30004FEA3C0C04F101044FEA44527A
:1003C00012F5800F80F09A80BCF1004F08BF5FEA01
:1003D000500C50F1000041EB045141EA050130BDE1
:1003E0005FEA4C0C404141EB0101013C28BFB1F5F3
:1003F000801FE9D291F0000F04BF01460020B1FA3E
:1004000081F308BF2033A3F10B03B3F120020CDA10
:100410000C3208DD02F1140CC2F10C0201FA0CF0EE
:1004200021FA02F10CE002F11402D8BFC2F1200C53
:1004300001FA02F120FA0CFCDCBF41EA0C01904009
:10044000E41AA2BF01EB0451294330BD6FEA040452
:100450001F3C1CDA0C340EDC04F11404C4F120023D
:1004600020FA04F001FA02F340EA030021FA04F34F
:1004700045EA030130BDC4F10C04C4F1200220FAA6
:1004800002F001FA04F340EA0300294630BD21FAE4
:1004900004F0294630BD94F0000F83F4801306BFAA
:1004A00081F480110134013D4EE77FEA645C18BF9E
:1004B0007FEA655C29D094EA050F08BF90EA020F35
:1004C00005D054EA000C04BF1946104630BD91EA2D
:1004D000030F1EBF0021002030BD5FEA545C05D130
:1004E0004000494128BF41F0004130BD14F580046F
:1004F0003CBF01F5801130BD01F0004545F0FE41E3
:1005000041F470014FF0000030BD7FEA645C1ABF17
:10051000194610467FEA655C1CBF0B46024650EA4E
:10052000013406BF52EA033591EA030F41F400217A
:1005300030BD00BF90F0000F04BF0021704730B500
:100540004FF4806404F132044FF000054FF00001D5
:1005500050E700BF90F0000F04BF0021704730B596
:100560004FF4806404F1320410F0004548BF40426B
:100570004FF000013EE700BF42004FEAE2014FEAC0
:1005800031014FEA02701FBF12F07F4393F07F4F9B
:1005900081F06051704732F07F4208BF704793F09E
:1005A0007F4F04BF41F40021704730B54FF46074B1
:1005B00001F0004521F000411CE700BF50EA0102B4
:1005C00008BF704730B54FF000050AE050EA01025D
:1005D00008BF704730B511F0004502D5404261EBCD
:1005E00041014FF4806404F132045FEA915C3FF40E
:1005F000D8AE4FF003025FEADC0C18BF03325FEAAB
:10060000DC0C18BF033202EBDC02C2F1200300FA5B
:1006100003FC20FA02F001FA03FE40EA0E0021FA80
:1006200002F11444BDE600BF70B54FF0FF0C4CF46E
:10063000E06C1CEA11541DBF1CEA135594EA0C0F20
:1006400095EA0C0F00F0DEF82C4481EA030621EA5B
:100650004C5123EA4C5350EA013518BF52EA033596
:1006600041F4801143F4801338D0A0FB02CE4FF048
:100670000005E1FB02E506F00042E0FB03E54FF078
:100680000006E1FB03569CF0000F18BF4EF0010E70
:10069000A4F1FF04B6F5007F64F5407404D25FEA6C
:1006A0004E0E6D4146EB060642EAC62141EA55511F
:1006B0004FEAC52040EA5E504FEACE2EB4F1FD0C61
:1006C00088BFBCF5E06F1ED8BEF1004F08BF5FEADF
:1006D000500E50F1000041EB045170BD06F0004691
:1006E00046EA010140EA020081EA0301B4EB5C043E
:1006F000C2BFD4EB0C0541EA045170BD41F4801136
:100700004FF0000E013C00F3AB8014F1360FDEBF5A
:10071000002001F0004170BDC4F10004203C35DA36
:100720000C341BDC04F11404C4F1200500FA05F3B9
:1007300020FA04F001FA05F240EA020001F000425A
:1007400021F0004110EBD37021FA04F642EB0601D0
:100750005EEA430E08BF20EAD37070BDC4F10C04FA
:10076000C4F1200500FA04F320FA05F001FA04F2BE
:1007700040EA020001F0004110EBD37041F10001AA
:100780005EEA430E08BF20EAD37070BDC4F12005B5
:1007900000FA05F24EEA020E20FA04F301FA05F21D
:1007A00043EA020321FA04F001F0004121FA04F2C5
:1007B00020EA020000EBD3705EEA430E08BF20EA95
:1007C000D37070BD94F0000F0FD101F000464000CF
:1007D00041EB010111F4801F08BF013CF7D041EA51
:1007E000060195F0000F18BF704703F00046520055
:1007F00043EB030313F4801F08BF013DF7D043EA26
:100800000603704794EA0C0F0CEA135518BF95EADB
:100810000C0F0CD050EA410618BF52EA4306D1D162
:1008200081EA030101F000414FF0000070BD50EA81
:10083000410606BF1046194652EA430619D094EA0B
:100840000C0F02D150EA013613D195EA0C0F05D1F5
:1008500052EA03361CBF104619460AD181EA030149
:1008600001F0004141F0FE4141F470014FF0000001
:1008700070BD41F0FE4141F4780170BD70B54FF09C
:10088000FF0C4CF4E06C1CEA11541DBF1CEA13551C
:1008900094EA0C0F95EA0C0F00F0A7F8A4EB0504FE
:1008A00081EA030E52EA03354FEA013100F08880F5
:1008B0004FEA03334FF0805545EA131343EA1263BE
:1008C0004FEA022245EA111545EA10654FEA002673
:1008D0000EF000419D4208BF964244F1FD0404F52C
:1008E000407402D25B084FEA3202B61A65EB030588
:1008F0005B084FEA32024FF480104FF4002CB6EB45
:10090000020E75EB030E22BFB61A754640EA0C00C4
:100910005B084FEA3202B6EB020E75EB030E22BF04
:10092000B61A754640EA5C005B084FEA3202B6EB45
:10093000020E75EB030E22BFB61A754640EA9C0004
:100940005B084FEA3202B6EB020E75EB030E22BFD4
:10095000B61A754640EADC0055EA060E18D04FEA92
:10096000051545EA16754FEA06164FEAC30343EA32
:1009700052734FEAC2025FEA1C1CC0D111F4801FFF
:100980000BD141EA00014FF000004FF0004CB6E7F8
:1009900011F4801F04BF01430020B4F1FD0C88BF97
:1009A000BCF5E06F3FF6AFAEB5EB030C04BFB6EBA2
:1009B000020C5FEA500C50F1000041EB045170BD95
:1009C0000EF0004E4EEA113114EB5C04C2BFD4EBC2
:1009D0000C0541EA045170BD41F480114FF0000E46
:1009E000013C90E645EA060E8DE60CEA135594EAC2
:1009F0000C0F08BF95EA0C0F3FF43BAF94EA0C0FC5
:100A00000AD150EA01347FF434AF95EA0C0F7FF439
:100A100025AF104619462CE795EA0C0F06D152EA8D
:100A200003353FF4FDAE1046194622E750EA410671
:100A300018BF52EA43067FF4C5AE50EA41047FF482
:100A40000DAF52EA43057FF4EBAE12E74FEA4102E5
:100A5000B2F1E04324BFB3F5001CDCF1FE5C0DD91C
:100A600001F0004C4FEAC0024CEA5070B2F1004F66
:100A700040EB830008BF20F00100704711F0804F69
:100A800021D113F13872BCBF01F00040704741F42E
:100A900080114FEA5252C2F11802C2F1200C10FA32
:100AA0000CF320FA02F018BF40F001004FEAC12316
:100AB0004FEAD32303FA0CFC40EA0C0023FA02F3BA
:100AC0004FEA4303CCE77FEA625307D150EA013390
:100AD0001EBF4FF0FE4040F44000704701F0004060
:100AE00040F0FE4040F40000704700BF7BB972B98F
:100AF0000029BEBF00204FF0004106E008BF0028DB
:100B00001CBF6FF000414FF0FF3000F0D3B9ADF1E2
:100B1000080C6DE904CE002909DB002B1ADB00F07C
:100B20004DF8DDF804E0DDE9022304B070474042EF
:100B300061EB4101002B1BDB00F040F8DDF804E025
:100B4000DDE9022304B0404261EB4101524263EB14
:100B500043037047524263EB430300F02FF8DDF884
:100B600004E0DDE9022304B0404261EB410170473B
:100B7000524263EB430300F021F8DDF804E0DDE9C5
:100B8000022304B0524263EB4303704753B94AB99E
:100B9000002908BF00281CBF4FF0FF314FF0FF3085
:100BA00000F088B9ADF1080C6DE904CE00F006F84C
:100BB000DDF804E0DDE9022304B070472DE9F047D9
:100BC000089D8E4604468846002B4AD18A42174625
:100BD00062D9B2FA82F64EB1C6F1200301FA06F8E4
:100BE00020FA03F3B74043EA0808B4404FEA174E2F
:100BF0001FFA87FCB8FBFEF1230C0EFB118843EAB9
:100C0000084301FB0CF29A4209D9FB1801F1FF30AD
:100C100080F0EA809A4240F2E78002393B449A1A17
:100C2000A3B2B2FBFEF00EFB102243EA024300FB2C
:100C30000CFC9C4509D9FB1800F1FF3280F0D680EE
:100C40009C4540F2D3803B44023840EA0140A3EB8C
:100C50000C0300211DB1F3400022C5E90032BDE8BC
:100C6000F0878B4205D90DB1C5E900010021084686
:100C7000F5E7B3FA83F1002946D1734502D38242E6
:100C800000F20581841A6EEB030201209046002DCC
:100C9000E5D0C5E90048E2E7002A00F09080B2FA0A
:100CA00082F6002E40F0A4808A1A030C4FEA174EF9
:100CB00080B2BCB20121B2FBFEFC0EFB1C2243EA57
:100CC000024304FB0CF29A4207D9FB180CF1FF38DF
:100CD00002D29A4200F2E080C4469B1AB3FBFEF2B5
:100CE0000EFB123340EA034302FB04F49C4207D993
:100CF000FB1802F1FF3002D29C4200F2CA80024689
:100D00001B1B42EA0C40A5E7C1F120068B4022FAEA
:100D100006F71F430EFA01F420FA06F32EFA06FE38
:100D20004FEA1749234300FA01F81FFA87FCBEFB7C
:100D3000F9F01C0C09FB10EE44EA0E4400FB0CFE1B
:100D4000A64502FA01F209D93C1900F1FF3A80F0F8
:100D50009C80A64540F2998002383C44A4EB0E04E6
:100D60001FFA83FEB4FBF9F309FB13444EEA044473
:100D700003FB0CFCA44508D93C1903F1FF3E80F0AD
:100D80008280A4457FD9023B3C4443EA0040A4EB67
:100D90000C04A0FB02EC64457346E14662D35FD0CD
:100DA0005DB1B8EB030264EB090404FA06F622FA1B
:100DB00001F31E43CC40C5E9006400214FE7B1FBBD
:100DC000F2FC010C41EA0E4180B240EA01423B468E
:100DD00038463C46B846BE462026B1FBF7F1A2EBAA
:100DE000080241EA0C4166E7014618E710462CE785
:100DF000C6F120022EFA02F3B740B14020FA02F207
:100E00004FEA174E0A43B3FBFEF8BCB20EFB183391
:100E1000110C41EA034108FB04F9B04089454FEA4F
:100E2000104380B23ED9791808F1FF3C01D28945C0
:100E30001FD8A1EB0901B1FBFEF909FB04F80EFB79
:100E4000191192B242EA0142424529D2BA1809F177
:100E5000FF31C4D24245C2D2A9F102013A44BEE7F1
:100E6000F0459DD2BEEB02036CEB070C0138E14666
:100E700096E7A7EB09094944A8F1020CB1FBFEF97A
:100E800009FB04F8DBE773467FE7504666E7084650
:100E9000FDE63B44023A33E7ACF1020C3B441CE76D
:100EA00049469CE7A1EB0901C446B1FBFEF909FBE9
:100EB00004F8C4E7704700BF014900200BF074BB81
:100EC000E51F000808B5642009F080FDFBE700007D
:100ED00010B594B01022002102240AA835F044FD78
:100EE0001422002103A835F03FFD1D4B192108A84D
:100EF0001A6C42F080521A641B6C03F08053019309
:100F0000019B184B1A6842F440421A6001221B6888
:100F100003F440430293029B4FF48033CDE908234E
:100F20004FF48003CDE90E434FF4D873CDE912445A
:100F3000CDE9101308F036FD08F0A0FA0F230020C9
:100F40000721CDE903344FF4A053CDE905034FF455
:100F5000805303A8079308F00DFF14B010BD00BF25
:100F6000003802400070004030B54FF480738FB0FD
:100F70004FF080720E4D06939F2309920122009339
:100F800000230446694628460593CDE90A2341F229
:100F90008832CDE90733CDE90C3308F0D5FB41F2B7
:100FA00088322146284608F099FC0FB030BD00BFBA
:100FB000AC03002000B54FF4807391B04FF0407245
:100FC000EF2808934FF0EB0302A90D4802934FF46A
:100FD000406309934FF4005305934FF00003CDE9AC
:100FE0000A3214BF0A2206220F9307926A46CDE9FD
:100FF0000D33CDE9003308F0EBFB11B05DF804FBD5
:10100000AC0300202DE980489BB01022002101256F
:101010000DA84FF0104935F0A7FC002407F07EF929
:10102000C74B0DA8ADF834501094CDE90E9307F0DE
:1010300093F917230DA88DF835508DF83C308DF8B5
:10104000425007F089F9042007F076F9BFF34F8F7B
:10105000BFF36F8FBB4AC2F85042BFF34F8FBFF34D
:101060006F8F536943F400335361BFF34F8FBFF366
:101070006F8FC2F88440BFF34F8FD2F8803043F6B1
:10108000E074C3F3C900C3F34E335B0103EA040603
:10109000014646EA81750139C2F86052F9D2203B17
:1010A00013F1200FF2D1BFF34F8F536943F4803314
:1010B0005361BFF34F8FBFF36F8F07F095F8002494
:1010C000FFF706FF142200210DA835F04DFC9E4BC2
:1010D00010219E481A6B01274FF010084FF0030BA8
:1010E00042F010024FF4805A994D4FF004091A63F0
:1010F0001A6B984E02F010020292029A1A6B42F09A
:1011000002021A631A6B02F002020392039A1A6B2C
:1011100042F001021A631A6B02F001020492049A6F
:101120001A6B42F040021A631A6B02F040020592F9
:10113000059A1A6B42F400721A631A6B02F4007279
:101140000692069A1A6B42F008021A631A6B02F0B2
:1011500008020792079A1A6B42F480621A631A6BAC
:1011600002F480620892089A1A6B42F020021A6315
:101170001A6B02F020020992099A1A6B42F48072EB
:101180001A631A6B02F480720A920A9A1A6B42F07E
:1011900080021A631A6B02F080020B920B9A1A6B90
:1011A00042F004021A6300221B6B03F004030C9349
:1011B0000C9B07F01DFC01220821674807F018FC72
:1011C00001224FF48051654807F012FC0022C02133
:1011D000634807F00DFC00224021624807F008FC3C
:1011E0000DA95A48CDE90D87CDE90F4B07F07CFAE0
:1011F00008230DA95848CDE90D37CDE90F4407F074
:1012000073FA0DA95548CDE90DA7CDE90F4407F0B4
:101210006BFAC0220DA95248CDE90D27CDE90F4B3D
:1012200007F062FA40220DA94E48CDE90D27CDE91D
:101230000F4B07F059FA4C484C4984800160076213
:10124000C0E9054407F0B4F849492846C5E9001447
:10125000C5E90244C5E90A44C5E90C4407F047F969
:1012600039462846434D07F0F9F940234FF4C07240
:1012700041493046B460F461B462C6E905324FF4C6
:101280000062C6E9082A4FF0020A0722C6E90014E4
:101290000DA9CDF84CA0C6E90398CDE90DA2CDE982
:1012A0000F92CDE911BA09F0BBF829464FF6FF724B
:1012B00030460194C5E90078C5E9027409F0D0F818
:1012C000384606F0B5FF29464FF6FF723046C5E9AD
:1012D00000A8C5E9027409F0C3F8082329464FF6AF
:1012E000FF723046C5E900B8C5E9023409F0B8F824
:1012F0004FF40C734FF6FF72294601933046019B61
:10130000AF60EB60C5E9009809F0AAF840F22B71D4
:1013100030461A4D09F0C3F84FF0204343F2D20291
:10132000642040F215261A6006F082FF144B154A1D
:1013300028462C62C5E90023C5E9024724E000BF26
:101340001B00000300ED00E00038024000040240F2
:10135000F40400207803002000280240002002400E
:10136000000802400018024034050020003002400E
:1013700000B002405C030020400100A0A004002057
:1013800068474020005C0040C5E90444C5E90644C4
:1013900007F06FFC2146284607F092FE21462846BA
:1013A000404D07F0B3FE342221460DEB020035F02C
:1013B000DBFA3D4B2821352040F2352C2C61AC86E0
:1013C00085F83640C5E900340923C5E905130B2328
:1013D000C5E9070340F21B132846C5E9096340F23B
:1013E0001D13C5E90244C5E90BC307F033FFFF2114
:1013F0004FF4806E4FF4F0724FF4887328460D94CA
:101400001893ADF864408DF86640CDE912140521BB
:10141000CDE914E14FF04041CDE90E24CDE916129B
:1014200022460DA9CDE9103A07F0DFFF1F48204BF7
:101430000462C0E90037C0E902984FF4A0634FF09E
:101440001808C0E90644C0E9048308F02BF90DA888
:10145000FFF78AFD9DF83400FFF7ACFD5C2006F035
:101460004BFF00F03BFB00F065FB00F062FB09F076
:1014700023FA104A2146104809F058FA0F4B104A37
:10148000214618600F4809F051FA0F4B0F4A2146C8
:1014900018600F4809F04AFA0E4B186009F026FA56
:1014A000FEE700BFF803002000680140AC03002005
:1014B000001000A0ECAD0308C50E00087403002066
:1014C000C8AD0308431B000870030020A4AD030847
:1014D000C53600086C0300200268034B9A4201D114
:1014E00006F094BE704700BF001000407047000037
:1014F0000D4B82B00F216FF001001A6C42F0805248
:101500001A641A6C02F080520092009A5A6C42F4EB
:1015100080425A6400225B6C03F480430193019B78
:1015200002B006F0A9BE00BF00380240026882B0D7
:10153000084B9A420BD1D3F8302803F5006342F4EC
:1015400080521A631B6B03F480530193019B02B01A
:10155000704700BF003002400E4B07B502689A4248
:1015600015D1A3F5F04305215A201A6B42F400026D
:101570001A6300221B6B03F400030193019B06F026
:101580007BFE5A2003B05DF804EB06F0A7BE03B063
:101590005DF804FB00B0024010B5A8B00446142268
:1015A000002102A835F0E0F98422002107A835F0D7
:1015B000DBF92268174B9A422AD14FF4803307A8EF
:1015C000079308F0A3FC08B1FFF790FF124C4FF40B
:1015D000C07201211148236B43F080032363236B06
:1015E00003F080030093009B1223CDE90223032321
:1015F000CDE90413042302A9069307F075F8236CC0
:1016000043F400032364236C03F400030193019B60
:1016100028B010BD005C004000380240001C0240B1
:10162000026808B5094B9A420FD1094A802109483E
:10163000136C23F40003136407F03AF94FF480713C
:101640000448BDE8084007F033B908BD005C00401D
:1016500000380240001C024070B5ACB004461422B1
:10166000002106A835F080F9842200210BA835F06E
:101670007BF92268484B9A4240F08C800823052071
:1016800001240B934FF4C07310930223CDE9113062
:101690004FF400330BA8CDE9154308F037FC08B12F
:1016A000FFF724FF3D4B002402250E265A6C06A9A5
:1016B0003B4842F080625A645A6C02F080620092A9
:1016C000009A1A6B42F010021A631A6B02F01002B1
:1016D0000192019A1A6B42F400721A631A6B02F4B7
:1016E00000720292029A1A6B42F480621A631A6BB9
:1016F00002F480620392039A1A6B42F040021A636A
:101700001A6B02F040020492049A1A6B42F480723F
:101710001A631B6B03F480730593059B1023CDE9BB
:101720000635CDE908440A9606F0DEFF4EF6FF7353
:1017300006A91C480A96CDE90635CDE9084406F00D
:10174000D3FFF72306A918480A96CDE90635CDE957
:10175000084406F0C9FF4FF4805306A91348CDE9A9
:1017600006350923CDE908440A9306F0BDFF4FF47E
:10177000464306A90E480A96CDE90635CDE9084448
:1017800006F0B2FF58202246052106F075FD5820CC
:1017900006F0A4FD2CB070BD006801400038024086
:1017A00000100240002402400028024000180240BD
:1017B00000200240142200212DE9F0418AB00446A5
:1017C0000DEB020035F0D0F822682C4B9A4251D133
:1017D0002B4B0225032409269A6B4FF0040805A918
:1017E000284842F0020200279A639A6B02F0020234
:1017F0000192019A1A6B42F010021A631A6B02F0FE
:1018000010020292029A1A6B42F002021A631A6BD9
:1018100002F002020392039A1A6B42F008021A6362
:101820001B6B03F008030493049BCDE90585CDE908
:10183000084606F059FF402305A91348CDE90535B0
:101840000A23CDE90774099306F04EFF05A90E4857
:101850000996CDE90585CDE9077406F045FF4FF4FB
:10186000605305A909480996CDE90535CDE9077406
:1018700006F03AFF0AB0BDE8F08100BF001000A0FA
:10188000003802400010024000040240000C0240F8
:10189000F0B5002387B00393294B1E68002E4DD16D
:1018A0000122022703250C241A6001A9254B264892
:1018B0009A6B42F001029A639B6B03F00103009361
:1018C000009B4FF68373CDE90454CDE9013706F050
:1018D0000BFF48F2331301A91C480594CDE90137E9
:1018E000CDE9036506F000FF4CF2037301A9184827
:1018F0000594CDE90137CDE9036506F0F5FE4FF615
:101900003F0301A913480594CDE90137CDE90365EB
:1019100006F0EAFE282301A90F480594CDE9013716
:10192000CDE9036506F0E0FE082301A90B48059404
:10193000CDE90137CDE9036506F0D6FE07B0F0BD6D
:1019400058050020003802400010024000180240F4
:10195000000C024000140240001C0240000802403B
:10196000214B1A6C42F0100270B588B01A641B6CDF
:10197000054601A903A803F010030293029B08F097
:10198000A7FA069B4BBB08F093FA184E184B33602E
:1019900040F2E733F360174BB0FBF3F3013B304603
:1019A000736000233361B360B36108F0CBFE04467B
:1019B00080B9304608F08CFD044658B9362006F050
:1019C0008DFC0F2D0DD822462946362006F054FCFA
:1019D000094B1D60204608B070BD08F069FA400050
:1019E000D3E70124F6E700BF003802405C05002081
:1019F0000010004040420F003C0000207047FEE70E
:101A0000FEE7FEE7FEE77047014808F0A3BD00BF10
:101A10005C050020014807F08BBC00BFF8030020E4
:101A2000014806F090BD00BFF4040020012070477B
:101A300008B535F04DF8162303604FF0FF3008BDB0
:101A400008B535F045F816230360FEE770B50D467E
:101A500014460E46731B9C4201DC204670BDAFF35A
:101A6000008006F8010BF5E770B50D4614460E46EA
:101A7000731B9C4201DC204670BD16F8010BAFF3CE
:101A80000080F5E74FF0FF3070474FF4005300201F
:101A90004B60704701207047002070470B4A034697
:101AA000116810B509B90A491160106809490A4C52
:101AB0000344091B8B4206D935F00AF80C23036056
:101AC0004FF0FF3010BD1360FCE700BFA8050020F9
:101AD0009068012000000520000A00007047000007
:101AE000DFF834D0002103E00C4B5B584350043145
:101AF0000B480C4B42189A42F6D30B4A02E00023E3
:101B000042F8043B094B9A42F9D306F085FA34F0C7
:101B1000E5FFFFF777FA704700000520D4DE0308E1
:101B200000000020240100204003002090680120D4
:101B3000FEE7704708B501F08DF9BDE8084001F0F7
:101B400011B901F089B940687047416070470000E1
:101B50004FF0E022D2F8FC3D43F08073C2F8FC3D28
:101B6000054B064AD3F8B01F0A43C3F8B02F1A68D2
:101B700042F001021A607047001000E055CEACC57B
:101B8000521A02EB5302B2FBF3F07047014B586854
:101B9000704700BF001000E0704710B504460C21EC
:101BA00033F0E7FC204610BD036810B51B690446FE
:101BB00031B19847A26863689B1A0344636010BD03
:101BC0009847A060FBE70000024B7020024A1360B8
:101BD000DB68184710000020AC050020704710B5E6
:101BE0000446042133F0C5FC204610BD73B50E4EEB
:101BF0000D461446336813B9002002B070BD1B694E
:101C0000702098470028F7D03368702001AA0DF1A2
:101C100006015B699847BDF8043001202B60BDF8D0
:101C200006302360E9E700BFAC0500207FB5012343
:101C30008DF817204FF47A72CDE901320DF11702B9
:101C400000920A460146054807F082F810B10348A1
:101C500007F064F807B05DF804FB00BFA0040020A3
:101C60007FB500230A464FF47A718DF817300123AF
:101C7000CDE901310DF1170100910146054807F04A
:101C800041F910B1034807F049F89DF8170007B073
:101C90005DF804FBA0040020032823D8DFE800F04F
:101CA000020B131A104B102110481A68B2FA82F274
:101CB000520906F09DBE0C4B40215A68B2FA82F2DE
:101CC00052090B48F5E7084B80219A68B2FA82F274
:101CD0005209F6E7044B40210648DA68B2FA82F26C
:101CE0005209E6E7704700BFB0050020000402403B
:101CF0000008024000180240032823D8DFE800F063
:101D0000020B131A104B102110481A68003A18BF22
:101D1000012206F06DBE0C4B40215A68003A18BFF4
:101D200001220B48F5E7084B80219A68003A18BF5A
:101D30000122F6E7044B40210648DA68003A18BF52
:101D40000122E6E7704700BFB00500200004024012
:101D5000000802400018024003280FD8DFE800F016
:101D60000206090B1021064806F047BE402105482F
:101D7000FAE78021FBE740210348F5E7704700BF01
:101D800000040240000802400018024008B5032881
:101D900013D8DFE800F0020A0D0F1021084806F002
:101DA00021FE431E5842584108BD40210548F6E730
:101DB0008021FBE740210448F1E70020F1E700BF64
:101DC00000040240000802400018024070B5084DAF
:101DD00000240126E0B2FFF7D9FF18B12B68012BD0
:101DE00018BF2E6001340435052CF3D170BD00BF3F
:101DF000B0050020012380F8781080F87930704712
:101E0000704700207047000041640039024B18BF42
:101E100001211970704700BF4F5B012070470020FF
:101E20007047836B0BB10846184770474FF6FF7039
:101E30007047406803689B69184770477047704750
:101E400038B5044601F05EF9084923682046084D7C
:101E5000D3F8903098470023284684F84A30FFF79B
:101E600077FE0123256184F8703038BD000000C082
:101E7000C005002001F0EAB801F0EEB870B501F03D
:101E80006BF910490023C1F88430BFF34F8FD1F8AC
:101E9000803043F6E074C3F3C900C3F34E335B01F3
:101EA00003EA0406024646EA8275013AC1F8745212
:101EB000F9D2203B13F1200FF2D1BFF34F8FBFF3C4
:101EC0006F8F70BD00ED00E001F048B901F09AB8E5
:101ED00001F06ABA01F072BA01F09EB810B504467A
:101EE00019F0D6FB23682046D3F8BC30BDE810407B
:101EF000184718F0E9BD10B50446842133F039FBCA
:101F0000204610BD90F834100D4B10B590F8784075
:101F10001A788C4209D03AB90A490B4A08881488C1
:101F2000108001220C801A7010BD002AFCD0064AD5
:101F30000449148808880C8010800022F3E700BF51
:101F4000485B0120465B0120445B012070B50D46D3
:101F5000194635B9094B40F2FF21094A094834F0C6
:101F600045FAC0E90F52003A074B18BF01221A7018
:101F70000368BDE87040D3F8903018475B780308D9
:101F800093780308E17803084E5B012008B5094BFC
:101F90001B888B4203D8084B1B88934205D9074BFB
:101FA000A321074A074834F021FA074B1980074B51
:101FB0001A8008BD445B0120465B01202679030896
:101FC00089790308E17803084A5B01204C5B012012
:101FD000034690F87A0018B1586803681B681847E0
:101FE00070470000014608B5034B186801B1012194
:101FF00019F068FB012008BD505B0120034B002253
:102000005A609A60024A1A60704700BFC0050020FB
:1020100018AE03080121002208B5084608F08EFD1D
:102020000A4B186028B90A4B28210A4A0A4834F09A
:10203000DDF900220421012008F04AFE074B186058
:1020400018B9074B2C21034AF0E708BDD005002042
:10205000CC790308157A0308447A0308CC050020DC
:10206000A17A0308024B4FF0FF31186808F0BEBD9B
:10207000D0050020014B186808F0F4BDD005002001
:10208000024B0021186808F0B1BD00BFD005002048
:10209000FFF7F0BF0023034803491A46006808F021
:1020A0005DBE00BFCC0500200400002013B5002356
:1020B000074C01A91A46206808F092FE4FF0FF3342
:1020C000002201A9206808F08BFE02B010BD00BFFD
:1020D000CC05002003685B6C18470120704703683B
:1020E0009B6A1847FEE700000E4B82B01A6B42F461
:1020F00000021A631A6B02F400020192019A1A6933
:1021000042F400021A611A6922F400021A61064BB5
:10211000064A1A61064A5A614FF08062054B9A607E
:1021200002B0704700380240F4040020C1230008C8
:10213000E520000800E100E040F2EF3070470000C9
:10214000054B4FF080620360044BC3F88820BFF357
:102150004F8FBFF36F8F704744AF030800E100E07B
:1021600010B504464FF45A61FFF7EAFF204633F0FA
:1021700000FA204610BD000008B50A2809D8DFE89B
:1021800000F006100E0808080810101010000220B9
:1021900008BD054B9021054A054834F027F9002079
:1021A000F6E70120F4E700BFE37A0308FE7A0308AC
:1021B000497B030838B50C46887FFFF7DDFF174BD6
:1021C000A58AE28A586342EA054221695A64628B11
:1021D000D963521B1A642568082D0ED19A611A61C1
:1021E00058620F4A207F42EA0062DA61E2681A62AE
:1021F0000C4A5961D9601A6038BD0022D8611A6151
:10220000E1680A0A4809C1F3C40102F4784200F403
:10221000FC6002430A439A63034AECE700B00240C1
:1022200009000100012302000123030008B50B2867
:102230000BD8DFE800F00612100A0A0A0A0808089C
:102240000808022008BD0520FCE7054B6F21054A60
:10225000054834F0CBF80020F4E70120F2E700BF96
:10226000E37A0308A47B0308497B03082DE9F041C6
:1022700091F81D800C464046FFF7D8FFA77F054622
:102280003846FFF7D3FF06463846FFF775FFA18AA9
:10229000628B434B521A1A649A61228B521A1A614A
:1022A000E28A586342EA014221695A646268D9634A
:1022B000DA602068802828D0227F0FD8202866D0B6
:1022C000402864D004281AD045EA0265344BB8454A
:1022D00045F40035DD6160D0324A44E0B0F5807FDE
:1022E00004D0B0F5007FEFD12F4800E02F4840EA3E
:1022F0000262DA61E2681A625E62596132E045EABE
:10230000026242F40032DA61F6E7A068021DDA6286
:10231000227F45EA026545F40035DD615E62596160
:10232000017841B1012921D0214B4FF48D71214A0F
:10233000214834F05BF8DA69418822F47F420139A0
:1023400022F0100242EA01220121DA61144BDA691B
:1023500042F02002DA61DA699206FCD410229A6017
:102360000029B9D0154A1A60BDE8F081B2F1FF0129
:10237000DA69408822F47F4218BF0121013822F037
:10238000100242EA002242F01002DA61DEE745EA7A
:102390000262034B42F40032B5E742F20132E2E757
:1023A00000B0024001230100090002000A000200FF
:1023B000EE7B0308087C0308497B03080123020025
:1023C000024B1B68586803685B691847505B012023
:1023D00070B504460A4B0C3000262546602260602A
:1023E0002672667245F8203B294619F0BFFA04F5BB
:1023F0005A63EE6024359D42FBD1204670BD00BF7C
:1024000044AF0308034B1A68D207FCD423229A6016
:10241000704700BF00B00240094B5A69D2030AD589
:10242000BFF34F8F08440029A0EB010204DCBFF387
:102430004F8FBFF36F8F70472039C3F86822F2E7E0
:1024400000ED00E030B5104C2568ED07FCD42325E5
:102450000904FF2BA56041F001014FF002056563FF
:102460006164E0630AD00949656241EA0363E3619C
:10247000074B22626061E060236030BDE561039B31
:10248000A363044BF8E700BF00B00240090001005D
:10249000010002000100030030B50F4C2568ED0774
:1024A000FCD423251204FF2BA56042F001024FF05B
:1024B000020565636264E063E16008D01B0643F0D7
:1024C0000213E361054B65626061236030BD044B1C
:1024D000E3610123F9E700BF00B002400100020000
:1024E000020002FF30B50B4C2568ED07FCD4232514
:1024F00012041B06A56042F00102022543F40033DA
:1025000065636264E063E160E361034B656260619F
:10251000236030BD00B002400100020040697047F6
:1025200090F844007047036B23B9C06A003818BFA5
:10253000012070470120704780687047043010B553
:102540000C460FC884E80F0010BD704708B5034A59
:1025500040F21221024B034833F048FF467C030847
:1025600047980308A17C030810B50446482133F0BE
:1025700000F8204610BD00002DE9F0431D46ADF5E2
:102580001F7D436B06460F469046BDF89842002BD0
:1025900035D0002203A8DFF8A490CDE9013210F075
:1025A000EFFC4FF4F4725021249024A80AF09DFC13
:1025B0004246394624A80BF0E7FB012124A80AF083
:1025C0008FFD022324A88DF8D8300AF02AFE2B9B19
:1025D000419AA342BDF89C7228BF23469742A4EBC0
:1025E000030428BF174603EB43086400479B9F4240
:1025F00009D824A80AF096FD24A80AF0C3FC0DF51A
:102600001F7DBDE8F083012201A924A80AF052FE33
:10261000736B03EB0800984201D82544E6E759782C
:102620009A78C90009EA022201F4FC610A4313F80E
:10263000031B42EAD10225F8022BECE700F8FFFF6A
:102640000A4A02600022C0E90522C0E90722C0E967
:102650000922C0E90B22C0E90D12C0E90F2280F85F
:102660004420C0E90322C0E90122704794AF030867
:1026700010B40C4611461A46036B3BB1036C806BD9
:10268000E41A20445DF8044B34F076B9C06AF8E7E8
:10269000036B10B573B1036C826BC91A5318525C8B
:1026A00098785C780004DB7840EA0420104340EA24
:1026B000036010BDC36A5858FBE7036B43B1036C5A
:1026C000C91A836B5A18585C527840EA0220704746
:1026D000C36A585A7047000070B50446006B0D4637
:1026E0001646D8B1E36B934208D209230D4A6521FF
:1026F0000D4884F844300D4B33F078FE0368DB68F6
:102700009847206B3246A16B03681B69984710B944
:102710000D2384F84430A06B256470BDE06A084442
:10272000FBE700BF1B7D0308A17C0308087D0308AD
:102730002DE9F843436904462BB9234BAA21234AC8
:10274000234833F053FE08228169FFF7C5FFA169D2
:1027500043F2300646F2643704312046FFF798FF13
:10276000A3691844A36A00F108029A4206D3012320
:1027700000206361236AA361BDE8F88363690930BF
:102780000822013320F0010120466361A161FFF7B7
:10279000A3FFD4F8189020464946FFF78EFF09F1B1
:1027A000020180462046FFF788FF09F10401054633
:1027B0002046FFF76DFFB045D2D1BD42D0D10028F1
:1027C000CED00120D8E700BF5D7D0308A67D0308B9
:1027D000A17C03082DE9F04F0446ADF51F7D8A4624
:1027E0001646816908229846FFF776FFA7692046BA
:1027F000391DFFF74DFF07F1080102460546204647
:10280000FFF76AFF636B074633B93C4B40F2AB11ED
:102810003B4A3C4833F0EAFD002203A8CDE90132EF
:1028200010F0AEFB4FF4F4725021249024A80AF06B
:102830005CFB2A46394624A80BF0A6FA012124A8FD
:102840000AF04EFC022324A88DF8D8300AF0E9FCE7
:10285000BAF90250479BAB4229D3BAF900904FEA2C
:102860004808BAF804702B9B08FB05664F44BAF879
:102870000250DFF894B03FB29F4228BF1F46BAF81B
:10288000063009EB490A1D44419B2DB29D4228BFE9
:102890001D46479B9D4210D824A80AF043FC24A85B
:1028A0000AF070FB01200DF51F7DBDE8F08F0122BD
:1028B00001A924A80AF0FEFCCCE7012201A924A862
:1028C0000AF0F8FC626B49465244B94202F1030235
:1028D00001D34644DDE712F8020C12F8013CC000B7
:1028E0000BEA032300F4FC60034312F8030C43EAF1
:1028F000D00326F811300131E7E700BFD97D030886
:102900002F7E0308A17C030800F8FFFF012903685C
:1029100038BF0121DB6A70B50D4604469847A842CE
:1029200004D223682046DB6A984705466B1EE66999
:102930001022204606EB031606F10801FFF7CCFE35
:1029400006F110012046FFF7A3FE236A043B03446F
:10295000C4E9055370BD0000002148222DE9F04173
:102960000446816180F84410FFF7B6FEA66904238F
:10297000624A31462046FFF77BFE40B10323604A9E
:10298000F22184F844305F4B5F4833F02FFD06F1AD
:10299000080104235D4A2046A161FFF769FE30B1BA
:1029A0000423574AFA2184F84430594BECE706F1E6
:1029B0000C010423574A2046A161FFF759FE074640
:1029C00038B105234E4A40F2011184F84430524B8D
:1029D000DAE706F110012046FFF75AFE054620B956
:1029E0004E4B40F20711464ACEE706F11408042385
:1029F0004B4A20464146FFF73BFE002849D00623BC
:102A000084F844300423474A06F118012046FFF7B2
:102A10002FFE00283FD0072384F844304544424F1E
:102A20000C2220462946FFF757FE05F1080604232D
:102A30003A4620463146FFF71BFE94F84430002802
:102A400048D0002B48D1A36AAB4249D805F10C030A
:102A500004352046A3612946FFF71AFE3044294673
:102A600060622046FFF714FE0644042220463146E9
:102A7000FFF732FE04232D4A31462046FFF7F8FDCA
:102A8000002838D10123E6616361A3692362BDE8B0
:102A9000F0810127B6E7002FC0D006F120012046C3
:102AA000FFF7F6FD4FF47A7306F13001B0FBF3F057
:102AB00060602046FFF7ECFD06F14001A060204673
:102AC000FFF7E6FD06F14401E0602046FFF7E0FD78
:102AD0002061A3E7002BB9D00A2384F84430D6E75D
:102AE000291D2046FFF7D4FD85190C2220462946D2
:102AF000FFF7F2FD99E70B23EFE700BF897E03089C
:102B0000A77E03088E7E0308A17C0308D47E0308F9
:102B1000D97E0308F17E0308F67E03080C7F0308C4
:102B2000187F03081D7F0308227F0308277F0308FF
:102B3000C0E90A2100220263FFF70EBF10B500238F
:102B400004460846E3620B6821639B689847A062CD
:102B50002046BDE81040FFF7FFBE70B4BDF80C5032
:102B6000BDF810602AB123B1CDE9035670BCFFF760
:102B700003BD70BC704700002DE9F04F99464369D2
:102B800085B004460F4690462BB9294B7721294A38
:102B9000294833F02BFC08228169FFF79DFDA669C7
:102BA00020463146FFF789FDB11C83462046FFF7DA
:102BB00084FD311D82462046FFF76AFD06F10801BB
:102BC000A36A05460A189A4226D243F230039B456F
:102BD00017D146F264339A4513D190B10246A161F0
:102BE0002046FFF779FD0E9B01462A462046CDF888
:102BF0000080CDE901933B46FFF7AFFF63690133E6
:102C00006361A3692B4405B908330133626A23F079
:102C100001039342A36109D1012301206361236A67
:102C2000A36180F0010005B0BDE8F08F0020F8E757
:102C30005D7D03082C7F0308A17C030801207047F9
:102C400014207047142303FB01000830704714233D
:102C500003FB0100083070470120704740F69C00DC
:102C6000704740F69C0303FB01000830704740F6B4
:102C70009C0303FB010008307047012070471020BF
:102C8000704700EB01100830704700EB011008306E
:102C90007047084601F012BB034B10B504460360B1
:102CA00017F070F9204610BD3CB0030810B504467B
:102CB000FFF7F2FF1C21204632F05BFC204610BDDE
:102CC000034B10B50446036017F05CF9204610BDB5
:102CD00008B0030810B50446FFF7F2FF40F6A40160
:102CE000204632F046FC204610BD0000034B10B5D4
:102CF0000446036017F046F9204610BDD4AF030820
:102D000010B50446FFF7F2FF1821204632F031FCDF
:102D1000204610BD084B10B50446036000F50D6059
:102D2000FFF7BAFF04F12C00FFF7CAFF04F114000B
:102D3000FFF7DCFF204610BD70B0030808B502485D
:102D4000FFF7E8FF08BD00BFAC14002010B5044633
:102D5000FFF7E0FF4FF42561204632F00AFC2046E1
:102D600010BD00002DE9F34100F050FD00240546A0
:102D700000F050FD2346014622462846009421F0EB
:102D800063FF274B274A2046274D1A6004F058FB63
:102D9000264B274A27489A6021F0BEFE2B68BFF3D6
:102DA0005B8FDB0735D4284632F0E5FB88B3224C35
:102DB000224B04F6F40604F1140004F12C0804F587
:102DC0000D6723606060C4F80880E760266117F033
:102DD000DBF81B4B4046636117F0D6F8194B3846B9
:102DE000E36217F0D1F8184B04F6EC00C4F8D038C1
:102DF00004F0B0FB224604F6EC01304604F0A0FBE0
:102E0000304601F05BFA114833F00EFB284632F0F1
:102E1000BEFB0F4802B0BDE8F041FFF711B800BF9C
:102E2000B45B012058060020A8140020780600207A
:102E30005C06002008000020AC14002070B00308DD
:102E4000D4AF030808B003083CB003083D2D0008C8
:102E5000D405002070470000014817F09EBE00BF57
:102E6000D405002070B5264E264B274C3046274D02
:102E70002360FFF7ADFA284626F0F8FF24481FF03C
:102E8000B3FA244B00224FF4807123481A8683F84A
:102E900058205A6683F870205A67DC60C3E9121222
:102EA0001E49C3E91A121E49C3E91E011D491E48E5
:102EB000C3F880101D490B604FF4F071C3E9042280
:102EC000C3E90622C3E90822C3E90A22C3E90E22A4
:102ED000C3E91022C3E91422C3E91722C3E901653B
:102EE0000180134883F8342001804FF48871114821
:102EF00001801148018011490A70114A1A6070BDA1
:102F00000407002040AE0308A41400207806002027
:102F10005C060020D4050020000001010100000132
:102F20000004440016001400445B0120505B0120A3
:102F30004A5B0120465B01204C5B0120485B01207D
:102F400058AE03080148FFF7FBB800BF0407002094
:102F50000020704781807047C180704701817047B1
:102F6000418170477047704770477047704710B491
:102F7000C4880368121B84885B6D091B12B25DF85C
:102F8000044B09B218474FF6FF7383814FF0FF33AC
:102F900003621368C36110607047002070478B881C
:102FA000838001207047704780F82610704790F8A2
:102FB0002600704710B50022B1F90840B1F90A1097
:102FC000028042808480C18010BD00220280428045
:102FD0008280C28070470177704780ED080A704791
:102FE00080F82410704780F8251070470120704742
:102FF000983070478C307047843070477047704706
:1030000070470000034B902283F85A2383F858231B
:10301000704700BF00E100E0094A0A49D3680A4846
:10302000C3F30A03013B9BB20B801169C1F30A0190
:10303000013901801364536B43F0010353637047FC
:1030400000680140FE1E0020FC1E0020014BD3F84A
:10305000AC00704700680140024B0122C3F8AC107D
:103060005A62704700680140124A5369DB0370B529
:103070001ED50023C2F88430BFF34F8FD2F88030C2
:1030800043F6E074C3F3C900C3F34E335B0103EAB4
:103090000406014646EA81750139C2F87452F9D234
:1030A000203B13F1200FF2D1BFF34F8FBFF36F8F8F
:1030B00070BD00BF00ED00E070473823002201FB27
:1030C0000333C25490F838300BB9036C83647047F3
:1030D000704780F84C10704710B50446582132F004
:1030E00048FA204610BD10B504462C2132F041FAB2
:1030F000204610BD10B50446BC2132F03AFA2046F5
:1031000010BD000038B5044617F033FD23689D6EEE
:103110001DF08AFE01462046A8472368084A20463B
:10312000D3F88C500023A2F57F31A847054B064AFF
:103130005A60064A1A649A644FF4FF225A6438BDF2
:1031400000F807C0C01F00201820002000F40BC0AA
:1031500017F0F6BC17F000BD17F0BCBC17F03DBE71
:1031600090F8252012B103685B691847704700008A
:1031700008B531B1044B40F29711044A044833F0CA
:1031800035F990F8390008BD877F03089B7F030855
:103190002881030810B531B1064B40F29111064A5F
:1031A000064833F023F9406811460368BDE8104033
:1031B0001B6B1847877F03086A810308288103086F
:1031C00008B529B1034B7A21034A044833F00EF9BC
:1031D000006908BD877F03081B8303082881030853
:1031E00008B529B1054B8321054A064833F0FEF89E
:1031F00041618160C0E9063208BD00BF877F0308D6
:10320000D38403082881030810B5044629B1274B4D
:10321000A421274A274833F0E9F8052A34D8DFE803
:1032200002F003292F34393E406803681B69984730
:1032300050B34FF0FF31606D07F024FC00230122F2
:1032400094F83E1084F83B3084F83920A360636121
:1032500001B1226284F83E306362E36A2BB9012334
:10326000206D84F83A3007F0FDFC606DBDE8104039
:1032700007F038BC002380F8393084F83E3003E092
:10328000036200238360436110BD036200238360F7
:103290004361F2E7002380F839300123EDE7003B7A
:1032A00018BF012380F83D30EEE700BF877F030899
:1032B000928603082881030890F825201AB190F817
:1032C000242002B11860704770B50446164629B133
:1032D000314BE721314A324833F088F890F83930E1
:1032E00033B1304B1B6893F86B204369134443613F
:1032F000E36A002B4DD0E169D4E905325343A2685B
:103300004A43934220D2236A002B42D04FF0FF3130
:10331000606D07F0B7FB236A0BB10023E362E36A39
:10332000FBB90125606D07F0DDFB94F839300BB96E
:10333000236A3BB1E36A2BB90123206D84F83A304C
:1033400007F090FC284670BD94F84C000028DDD0B2
:103350009B1AB3FBF1F2994298BF02F1FF3262620D
:10336000D4E7002294F83C50A3623046E262E2685F
:103370002261A2680132A260336333685B699847B7
:10338000002DCED194F83D30002BCBD184F83950AC
:10339000C8E70125C9E700BF877F030869880308DC
:1033A00028810308505B0120034B4FF080629A6034
:1033B0004FF080729A60704700E100E0084B4FF0D8
:1033C0008062C3F88820BFF34F8FBFF36F8F4FF039
:1033D0008072C3F88820BFF34F8FBFF36F8F7047A1
:1033E00000E100E038B5034690F8380038BB012210
:1033F0009860D8609A634FF4807258619A874FF44E
:10340000F0729861D861186258629862D862186345
:10341000586383F83E00CA864FF4887281F83400FE
:103420000A8708639A6C186102F5FF24D3E9101526
:1034300029448C420AD9084B5821084A03E0084B1A
:1034400040F2F511074A084832F0D0FF1A6302F53E
:103450007F329C645A6338BDC78B0308078C03080E
:103460000D8A03083D8A030828810308002370B5EC
:10347000124E05468380124B0360336893F8582040
:103480000AB1D86C00B998680368DB6A984733685A
:10349000B0FA80F4D86C640930B10368DB6A9847ED
:1034A000002808BF44F001042CB9064B2C21064A21
:1034B000064832F09BFF284670BD00BF505B0120DC
:1034C00084B00308AD8D03080B8E0308448E0308F7
:1034D00070B5254E3568BFF35B8F15F0010540D1FF
:1034E000304632F048F800283BD0204C204B04F105
:1034F00034002561E584A562A585C4E90035C4E9E9
:1035000002551FF056FA04F1580019F0E9FE194B64
:103510002046A365184B40F8843BFFF7A7FF174BE5
:103520001748C4F884302433C4F89050C4F88C3061
:103530004FF4C803C4F89C50C4F8A850C4E9283517
:103540000023C4F8AC30C4F8B030C4F8B430C4F8C8
:10355000B8300C4BC4F8983032F066FF304632F089
:1035600016F8024870BD00BF001F0020041F002095
:10357000B8CD0308A4B003081CB103086CCD030840
:10358000013000084CCD030838B5184C23685BB3F4
:10359000174B184A1B6C11888B4216D1164B00250D
:1035A000198805F04FFF236893F86A2083F87C5050
:1035B000013283F86A20FEF76DFD206818F068F884
:1035C0002846BDE83840FEF767BB05F03BFF24689E
:1035D000236820461B6A98470123002084F87C302A
:1035E000BDE83840FEF788BB38BD00BF505B012006
:1035F00000680140FE1E0020FC1E00202DE9F7435C
:1036000004464FF4707894F83A304FF0FF31002BB5
:1036100031D0606D07F036FA276BA36ABB4200D148
:10362000676B266A656856B32B68314628465B6A25
:1036300098470023236284F83B30606D07F052FA0C
:103640002B684FF4F0723946CDF8008028465E6949
:103650004FF48873B0474FF0FF310646606D07F0B6
:1036600011FA94F83B30E3B1002384F83B30606DED
:1036700007F038FAC7E7206D07F0B8FAC3E7636AC6
:10368000002BDAD02B682846D3E909939847616A62
:1036900001442846C847A368626A66621344A3606F
:1036A000CBE7E7625EB12B6828469B6A98470138F2
:1036B0000023E06084F83C6084F83A30D7E70120CA
:1036C000F6E70000014808B5FFF798FFC01F00208B
:1036D0000368042270B504465E6A00230D46B047B5
:1036E0004FF0FF31606D07F0CDF9382303FB054241
:1036F000D16A09B10021D16203FB0545012385F898
:103700003B30002385F83930606DBDE8704007F02C
:10371000E9B938B500EB810304460D4611465868F7
:103720000368DB68984729462046FFF7D1FF38BD7C
:1037300070B50D461146044600EB850250680268DC
:1037400096681A46B04729462046FFF7C1FF70BD6C
:1037500038B5164900251648FEF772FF154C164B72
:1037600001202A46294623604FF48073A564A3876D
:1037700084F84C0084F83E50C4E91055C4E914554F
:10378000C4E90155C4E90355C4E90555C4E9075521
:10379000C4E90955C4E90B55C4E90D5507F0CEF944
:1037A0002065284607F02AF9606538BD60200020B2
:1037B00018200020C01F002068B10308704708B51A
:1037C000062919D8DFE801F00408100C0C101400C9
:1037D00003F082FE006808BD03F07EFE4068FAE751
:1037E00003F07AFEC068F6E703F076FE8068F2E741
:1037F00003F072FE0069EEE70020ECE710B5044626
:10380000042131F0B6FE204610BD0000004870478C
:10381000B4B103082A20704713B5002451B10368DE
:1038200001AA01948DF803409C680DF10303A047A1
:1038300002B010BD0846FBE7C0897047008A704798
:10384000C088704780887047807A00F07F0070479A
:10385000807AC00970470020704700009FED010A80
:10386000704700BF00000000704710B504460821F3
:1038700031F07FFE204610BD7047704700F5987309
:103880000868496803C370477047704741607047D4
:1038900070477047064BC0F84801C0F84C31002310
:1038A000C0F8503100F5A273C0F84031704700BF36
:1038B00065460008012303727047704770477047E0
:1038C00070477047704738B5054640680368DB6944
:1038D0009847044604B938BDE1882046AB89C91A27
:1038E000236809B25B6B9847A469F3E738B50546CE
:1038F00040680368DB699847044604B938BDE1882D
:103900002046AB89C91A236809B25B6B9847A46942
:10391000F3E7704710B441680346C2689B685410CF
:1039200001EB6200D20748BF0A595DF8044B48BF5B
:10393000D35818470346406830B19A681AB9D86816
:1039400000F0010070470120704710B504460C21BB
:1039500031F00FFE204610BD10B50446142131F0A1
:1039600008FE204610BD10B50446102131F001FEBE
:10397000204610BD10B50446102131F0FAFD204656
:1039800010BD10B50446142131F0F3FD204610BDE2
:1039900010B50446102131F0ECFD204610BD10B5E5
:1039A00004464FF4AE7131F0E4FD204610BD10B571
:1039B0001DF03AFA0368BDE81040DB6B184710B5FC
:1039C0001DF032FA0368BDE810405B6B184710B574
:1039D0001DF02AFA0368BDE810405B6B184710B56C
:1039E0001DF022FA0368BDE810405B6B184710B564
:1039F0001DF01AFA0368BDE810405B6B1847000021
:103A000013B50446807A0130637AC0B29842A0723E
:103A100005D9012323720023A37202B010BDB4F9AB
:103A20000C2000211FF0DCFCC30707D500284FF64F
:103A3000FF73C8BF012313FA80F000B20023E081B6
:103A4000ADF80230B4F910302082ADF80030C31A5E
:103A5000ADF804300C4B1B88ADF806301DF0E4F9CE
:103A600002AA036812E906001B6C9847A37A012B8F
:103A7000D3D1064B1B78002BCFD01DF0D5F902B067
:103A8000BDE810401DF0D6B9465B01204E5B012019
:103A900013B50446807A0130637AC0B29842A072AE
:103AA00005D9012323720023A37202B010BDB4F91B
:103AB0000C2000211FF094FCC30707D500284FF607
:103AC000FF73C8BF012313FA80F000B20023144A29
:103AD000E0811288ADF8023083B2D21AADF800202E
:103AE000228A20829B1AADF804300E4B1B88ADF859
:103AF00006301DF099F902AA036812E906001B6C52
:103B00009847A37A012BD0D1074B1B78002BCCD040
:103B10001DF08AF902B0BDE810401DF08BB900BF5E
:103B2000445B0120465B01204E5B012037B5054612
:103B3000807A01306B7AC0B29842A87205D901230D
:103B40002B720023AB7203B030BDB5F90C200021FD
:103B5000B5F90E401FF044FCC30707D500284FF607
:103B6000FF73C8BF012313FA80F000B2AB7A041BC5
:103B7000E881012BA4B206D1174B1B781BB11DF0B5
:103B800053F91DF057F90023144AADF8003012889C
:103B9000EB891A445B42ADF80220114AADF80630B9
:103BA0001288ADF804201DF03FF902AA036812E95B
:103BB00006001B6C984768680368DB6998470546F0
:103BC000002DC0D0E98828462B6821445B6B09B2E0
:103BD0009847AD69F4E700BF4E5B0120465B0120CA
:103BE000445B012037B50546807A01306B7AC0B25C
:103BF0009842A87205D901232B720023AB7203B03F
:103C000030BDB5F90C200021B5F90E401FF0E8FBDE
:103C1000C30707D500284FF6FF73C8BF012313FA67
:103C200080F000B2AB7A041BE881012BA4B206D16C
:103C3000134B1B781BB11DF0F7F81DF0FBF80023A8
:103C40000093104B1B88ADF80430EB89ADF80630BB
:103C50001DF0EAF802AA036812E906001B6C9847F7
:103C600068680368DB6998470546002DC7D0E98876
:103C700028462B6821445B6B09B29847AD69F4E78D
:103C80004E5B0120445B012010B50446D0F8400192
:103C900058B10368DB68984738B1D4F8400103682D
:103CA0009B6898470023C4F8403110BD2DE9F14FBF
:103CB000D0E9556A0746B06803681B6A984740F226
:103CC000CB63984205D8494BA321494A494832F071
:103CD0008DFB706803681B6A98470F2803D8464B12
:103CE000A421434AF2E7F06803681B6A98470F284B
:103CF00003D8424BA5213E4AE8E7DFF80C911DF0BE
:103D000093F804301DF0F6F8D9F8000010B10368FC
:103D1000DB689847D9F8000010B103681B68984722
:103D2000DFF8E880D8F8000010B103685B699847B5
:103D3000D7F83C0110B103685B689847D8F80000D9
:103D400010B103681B689847D7F83C0110B10368AD
:103D50009B689847F06800214FF0000B03685B6A8E
:103D60009847274B044680F80AB003604FF4A053ED
:103D7000C0F804B059460381224BA0F80EB01B884E
:103D80005B428381B06803685B6A9847054604F02C
:103D90005BF87068594603685B6A9847064629468F
:103DA00004F030F8331DC7F83C612846C9F80040DC
:103DB000C8F80050CAF800302B68C6F808A0DB68C5
:103DC000EE639847336830461B689847214628467B
:103DD0001FF000FB236820461B6998472368204694
:103DE0005B6901B0BDE8F04F184700BFA68E03081D
:103DF000348F03081A9003086190030804910308A4
:103E0000ECB50308465B0120985B0120945B012020
:103E10002DE9F14FD0E9556A0746B06803681B6A7F
:103E2000984740F2FB63984205D8484BA321484A83
:103E3000484832F0DBFA706803681B6A98470F281D
:103E400003D8454BA421424AF2E7F06803681B6A95
:103E500098470F2803D8414BA5213D4AE8E7DFF8F2
:103E600008911CF0E1FF04301DF044F8D9F800007F
:103E700010B10368DB689847D9F8000010B10368F7
:103E80001B689847DFF8E480D8F8000010B1036899
:103E90005B699847D7F83C0110B103685B689847A5
:103EA000D8F8000010B103681B689847D7F83C01A8
:103EB00010B103689B689847F06800214FF0000B31
:103EC00003685B6A9847264B044680F80AB0036093
:103ED0004FF4A053C0F804B059460381214BA0F819
:103EE0000EB01B888381B06803685B6A98470546FB
:103EF00003F0C8FC7068594603685B6A9847064639
:103F0000294603F09DFC331DC7F83C612846C9F8DB
:103F10000040C8F80050CAF800302B68C6F808A066
:103F2000DB68EE639847336830461B689847214644
:103F300028461FF04FFA236820461B6998472368DC
:103F400020465B6901B0BDE8F04F1847A68E030814
:103F5000A79103081A9003086190030804910308CD
:103F6000C8B50308465B0120985B0120945B0120E3
:103F70002DE9F14FD0E9556A0746B06803681B6A1E
:103F8000984740F2CB63984205D8494BA321494A50
:103F9000494832F02BFA706803681B6A98470F286B
:103FA00003D8464BA421434AF2E7F06803681B6A32
:103FB00098470F2803D8424BA5213E4AE8E7DFF88F
:103FC0000C911CF031FF04301CF094FFD9F8000074
:103FD00010B10368DB689847D9F8000010B1036896
:103FE0001B689847DFF8E880D8F8000010B1036834
:103FF0005B699847D7F83C0110B103685B68984744
:10400000D8F8000010B103681B689847D7F83C0146
:1040100010B103689B689847F06800214FF0000BCF
:1040200003685B6A9847274B044680F80AB0036030
:104030004FF4A053C0F804B059460381224BA0F8B6
:104040000EB01B885B428381B06803685B6A984747
:10405000054603F0B3FD7068594603685B6A9847EC
:104060000646294603F06CFD331DC7F83C6128461F
:10407000C9F80040C8F80050CAF800302B68C6F8EC
:1040800008A0DB68EE639847336830461B689847A2
:10409000214628461FF09EF9236820461B69984751
:1040A000236820465B6901B0BDE8F04F184700BFA8
:1040B000A68E03088D9203081A90030861900308E6
:1040C00004910308ECB50308465B0120985B0120CE
:1040D000945B01202DE9F14FD0E955BA0746DBF892
:1040E000080003681B6A984740F2FB63984205D8B2
:1040F000494BA321494A4A4832F078F9DBF80400D9
:1041000003681B6A98470F2803D8464BA421434AEB
:10411000F1E7DBF80C0003681B6A9847132803D803
:10412000414BA5213D4AE6E7DFF808911CF07CFEF3
:1041300004301CF0DFFED9F8000010B10368DB6822
:104140009847D9F8000010B103681B689847DFF85A
:10415000E880D8F8000010B103685B699847D7F889
:104160003C0110B103685B689847D8F8000010B1B3
:1041700003681B689847D7F83C0110B103689B6837
:104180009847DBF80C000021002603685B6A98471B
:10419000264B0446867203604FF4A05346603146B6
:1041A0000381234BC6811B8806828381DBF80800CC
:1041B00003685B6A9847054603F064FBDBF804007C
:1041C000314603685B6A98470646294603F038FB88
:1041D000331DC7F83C612846C9F80040C8F80050B4
:1041E000CAF800302B68C6F808A0DB68EE63984771
:1041F000336830461B689847214628461FF0EAF886
:10420000236820461B699847236820465B6901B0F4
:10421000BDE8F04F184700BFA68E0308739303084C
:104220001A900308619003080491030810B603086C
:10423000445B0120985B0120945B0120044B1B68C8
:1042400093F858200AB1D86C00B99868704700BF3D
:10425000505B0120F8B5174604460E461CF01CFFC3
:10426000124B00251C602946114B2360114BC4E9F9
:104270005135114B1868C4E953550368C4E94F55CB
:104280009B68C4E955769847284603F0D9F8FFF7AC
:10429000D5FF27F096FCFFF7D1FF27F00DFDFFF7C4
:1042A000CDFF27F015FD2046F8BD00BFA45B01201F
:1042B0002CB5030814B50308505B0120064BC0F869
:1042C0004801C0F84C310023C0F8503100F5A2730A
:1042D000C0F84031704700BF65460008064BC0F883
:1042E0004801C0F84C310023C0F8503100F5A273EA
:1042F000C0F84031704700BF05450008064BC0F8C4
:104300004801C0F84C310023C0F8503100F5A273C9
:10431000C0F84031704700BFA9430008064BC0F801
:104320004801C0F84C310023C0F8503100F5A273A9
:10433000C0F84031704700BFD5400008064BC0F8B8
:104340004801C0F84C310023C0F8503100F5A27389
:10435000C0F84031704700BF113E0008064BC0F85E
:104360004801C0F84C310023C0F8503100F5A27369
:10437000C0F84031704700BF713F0008064BC0F8DD
:104380004801C0F84C310023C0F8503100F5A27349
:10439000C0F84031704700BFAD3C000803685B6A5D
:1043A000184703685B6A18472DE9F14FD0E9556A51
:1043B0000746B06803681B6A984740F69B0398421B
:1043C00005D8474BA321474A474832F00FF8706899
:1043D00003681B6A98470F2803D8444BA421414A1D
:1043E000F2E7F06803681B6A98470F2803D8404B30
:1043F000A5213C4AE8E7DFF804911CF015FD0430E4
:104400001CF078FDD9F8000010B10368DB6898470C
:10441000D9F8000010B103681B689847DFF8E08006
:10442000D8F8000010B103685B699847D7F83C01E1
:1044300010B103685B689847D8F8000010B10368B2
:104440001B689847D7F83C0110B103689B689847F0
:10445000F06800214FF0000B03685B6A9847254B1A
:104460000446594603604FF4A053C0F804B00381DA
:10447000214B80F80AB01B88A0F80EB08381B06889
:10448000FFF78CFF054603F0ABF859467068FFF75D
:1044900088FF0646294603F081F8331DC7F83C61C2
:1044A0002846C9F80040C8F80050CAF800302B6808
:1044B000C6F808A0DB68EE639847336830461B688F
:1044C0009847214628461EF085FF236820461B6931
:1044D0009847236820465B6901B0BDE8F04F184754
:1044E000A68E0308579403081A90030861900308E6
:1044F00004910308C8B50308465B0120985B0120BE
:10450000945B01202DE9F14FD0E9556A0746B06868
:1045100003681B6A984740F69B03984205D8484BAE
:10452000A321484A484831F061FF706803681B6A5C
:1045300098470F2803D8454BA421424AF2E7F06878
:1045400003681B6A9847132803D8414BA5213D4AAD
:10455000E8E7DFF808911CF067FC04301CF0CAFCA7
:10456000D9F8000010B10368DB689847D9F800005B
:1045700010B103681B689847DFF8E480D8F80000A2
:1045800010B103685B699847D7F83C0110B1036824
:104590005B689847D8F8000010B103681B6898471B
:1045A000D7F83C0110B103689B689847F068002178
:1045B0004FF0000B03685B6A9847264B0446594648
:1045C00003604FF4A053C0F804B00381224B80F87D
:1045D0000AB01B88A0F80EB08381A0F810B0B068B4
:1045E000FFF7DCFE054602F0FBFF59467068FFF757
:1045F000D8FE0646294602F0D1FF331DC7F83C61BC
:104600002846C9F80040C8F80050CAF800302B68A6
:10461000C6F808A0DB68EE639847336830461B682D
:104620009847214628461EF0D5FE236820461B6980
:104630009847236820465B6901B0BDE8F04F1847F2
:10464000A68E03083D9503081A900308619003089D
:1046500004910308A4B50308445B0120985B012082
:10466000945B01202DE9F14FD0E9556A0746B06807
:1046700003681B6A984740F69B03984205D8434B52
:10468000A321434A434831F0B1FE706803681B6AB6
:1046900098470F2803D8404BA4213D4AF2E7F06821
:1046A00003681B6A98470B2803D83C4BA521384A5E
:1046B000E8E7DFF8F0901CF0B7FB04301CF01AFCC0
:1046C000D9F8000010B10368DB689847D9F80000FA
:1046D00010B103681B689847DFF8CC80D8F8000059
:1046E00010B103685B699847D7F83C0110B10368C3
:1046F0005B689847D8F8000010B103681B689847BA
:10470000D7F83C0110B103689B689847F068002116
:104710004FF0000B03685B6A9847214B04465946EB
:104720000360C0F804B080F808B0B068FFF736FE48
:10473000054602F055FF59467068FFF732FE0646FF
:10474000294602F02BFF331DC7F83C612846C9F803
:104750000040C8F80050CAF800302B68C6F808A01E
:10476000DB68EE639847336830461B6898472146FC
:1047700028461EF02FFE236820461B6998472368B1
:1047800020465B6901B0BDE8F04F1847A68E0308CC
:10479000219603081A900308619003080491030806
:1047A00080B50308985B0120945B0120406A704744
:1047B000806A704770470B888A889BB2D20A10B50E
:1047C0004C88C16943EA044351F82200184410BDE3
:1047D00010B50446BAB1107B68B1537BD27A1B0284
:1047E00003F4E0631A43236A03EB82031A888A42C4
:1047F00002D193F9020010BD05D80138043380B20C
:104800000028F3D1F7E70020F5E710B504462C2186
:1048100030F0AFFE204610BD30B58BB00446BDF879
:1048200060500895BDF85C5007959DF8505006956E
:104830009DF84C5005959DF8485004959DF84450BE
:1048400003959DF8405002959DF83C500195BDF8A8
:10485000385000951EF06AF9064B20462360159BE0
:10486000E361169B2362199B63621A9BA3620BB0E0
:1048700030BD00BF34B603087047704770477047BB
:10488000704730B585B00368044601816D46014626
:10489000D3F884303C342846984795E8070084E8EC
:1048A000070005B030BD30B585B0036804464181CE
:1048B0006D460146D3F884303C342846984795E845
:1048C000070084E8070005B030BD00220280428066
:1048D0008280C280704780F836107047036870B5D8
:1048E00004461B6B154698472368204629465B6E95
:1048F000BDE87040184700207047806C70477047D3
:104900007047704770477047704730B4446803463B
:10491000C2689B68551004EB6200D20748BF625919
:1049200030BC48BFD35818470346406830B19A6836
:104930001AB9D86800F0010070470120704730B400
:1049400044680346C2689B68551004EB6200D207B6
:1049500048BF625930BC48BFD35818470346406827
:1049600030B19A681AB9D86800F001007047012088
:10497000704781857047808D704710B504464C2183
:1049800030F0F7FD204610BD10B504463C2130F054
:10499000F0FD204610BD10B50446102130F0E9FDB1
:1049A000204610BD10B50446102130F0E2FD20462F
:1049B00010BD10B5044640F6780130F0DAFD20460F
:1049C00010BD08B590F828300BB1FEF7C9FB08BD43
:1049D00008B5FEF7C5FB08BD036870B55E6B0446FD
:1049E000114B8DB21B682BB9104B6C21104A11482A
:1049F00031F0FCFC1049828D0988914203D80F4B9D
:104A00006D210B4AF3E713F812200D4B1B6853F886
:104A1000220003681B6B9847291A3346204609B2C7
:104A2000BDE87040184700BFA85B0120F39603085B
:104A30003597030870970308AC5B0120B79703080C
:104A4000B05B012000224FF0FF318260C0E90021FD
:104A50007047036870B504461B6B1546984723687A
:104A6000204629465B6BBDE87040184770B5044688
:104A70001D46BDF91060FFF7ECFF2368294620466C
:104A80009B6B9847236831462046DB6BBDE870403E
:104A9000184700000022C0E90122C0E90322C0E952
:104AA0000522C0E907224FF480728284014A026025
:104AB000704700BF9CB6030810B5044626220021AB
:104AC00031F052FF2046FFF7E5FF00232046A362A6
:104AD00084F82C30012384F82430044B23604FF6F3
:104AE000FF73E385238684F8323010BD44D1030878
:104AF00010B504462622002131F036FF2046FFF78C
:104B0000C9FF0A4B4FF47F0220462360084BA36283
:104B10004FF6FF73A3850023C4E90C324FF0FF3238
:104B20002387E363C4E9102310BD00BF64CF0308EB
:104B300004B5030837B504464FF6FF752622002159
:104B4000ADF8045031F010FF2046FFF7A3FF0B4BE8
:104B5000204601A92360BDF8043084F82850E3847E
:104B600019F067FD064B20462360002384F82930A6
:104B70006385A385A36303B030BD00BF30D20308B3
:104B800094B703082DE9F04F04469FB000251EF0AE
:104B900075FAA046D94B26222946E56304F1A00AFE
:104BA00048F8403B404631F0DFFE4046FFF772FFD9
:104BB000D34BA5661CAE2364FF2304F584794FF61E
:104BC000FF7784F8663004F16C0304F5AE6B184689
:104BD0000A93FFF771FF5046FFF76EFF04F1D4030D
:104BE00018460B93FFF768FF31464846ADF87070E2
:104BF00018F016FC04F59A7318460C9319F0F2FCA1
:104C000004F5B87318460993FFF772FFBD4BC4F85B
:104C1000B851C4F8703104F5DE7318461393FFF7EA
:104C20004BFFB94BA4F8F071C4F8BC3104F5FA732A
:104C30001846039315F07AFA04F536731846049370
:104C4000FFF756FF04F5487318460593FFF750FF2A
:104C500004F55A7318460D93FFF76CFF04F569735A
:104C600018460E93FFF766FF04F5787318460F9306
:104C7000FFF760FF04F21C433146ADF87070184630
:104C8000069318F0CDFB04F589633146ADF87070DA
:104C90001846079318F0C4FB04F27443271D184606
:104CA0000893FFF725FF04F2BC4318461093FFF763
:104CB00041FF04F59F6318461193FFF73BFF04F291
:104CC000345318461293FFF735FF584619F08AF906
:104CD0008E4A8F4B4046C4F8F02729468D4AC4F8C7
:104CE000D837C4F800288C4A8C4BC4F810288C4A5A
:104CF000C4F8E037C4F820288A4A8B4BC4F830281F
:104D00008A4AC4F8E837C4F84028894AC4F8F83712
:104D1000C4F80838C4F81838C4F82838C4F8383843
:104D2000C4F84838C4F85028C4F8DC47C4F8E4573D
:104D3000C4F8EC47C4F8F457C4F8FC47C4F8045866
:104D4000C4F80C48C4F81458C4F81C48C4F82458D3
:104D5000C4F82C48C4F83458C4F83C48C4F8445843
:104D6000C4F84C48C4F85458C4F85838C4F86838E3
:104D7000704B714AC4F870384FF48873C4F86028D7
:104D80002A46C4F85C48C4F86458C4F86C48C4F8AF
:104D9000745800934FF4F073FFF768FE4FF07F43B1
:104DA00041463846A36604F5FB6815F0F9FB6F220F
:104DB00041210A98FFF74DFE4FF0010332461BA92F
:104DC0000A98ADF87030ADF86C5019F050FA0A99A5
:104DD0003846C4F8948015F0E3FB50466F226121F9
:104DE000FFF737FE4FF00103324650461BA9ADF8DE
:104DF0007030ADF86C5019F03AFA51463846C4F8A4
:104E0000C88004F5E26A15F0CBFB6E2223210B98D3
:104E1000FFF71FFE4FF0010332461BA90B98ADF8B8
:104E20007030ADF86C5019F022FA0B993846C4F87E
:104E3000FC8015F0B5FB032348463146ADF87030D1
:104E400019F0F7FB4FF488732A4648462946009329
:104E50004FF4F073FFF70AFE4846294618F09BFA14
:104E6000494638460DF1500915F09AFB6FF00702DC
:104E70006FF006010C98FFF7ECFD4FF010031AAA33
:104E800019A9ADF86430ADF8683017230C98ADF867
:104E90006C3018230096ADF870301BAB19F00DFB89
:104EA0004FF005130C993846C4F86C31C4F85C8196
:104EB00015F076FB21232E22C621099800934A2360
:104EC000FFF7D4FD4FF0FF3309994846C4F8A031ED
:104ED000D4F87031A4F8A451D3F88430984704F57D
:104EE000D67399E8070083E80700144B1B686BBB77
:104EF000134B6021134A144831F078FA38B803088C
:104F0000F4CF030804B703087CCE0308215400083B
:104F100008B80308495400086D5400088D53000870
:104F200089540008B154000820B80308D55400087B
:104F3000F15400083D55000819550008A85B0120F0
:104F4000F3960308F597030870970308D24B1B8864
:104F5000122B03D8D14B6121D14ACCE7D14B12217E
:104F6000186802F0A9FAD04A0346642150461FF09F
:104F7000C5FDCE4B314609981C932D23C4F8B8A12A
:104F80004FF0140AADF8743018F08EFF09993846C6
:104F900015F006FB1398052240F29F11FFF759FD0B
:104FA0001A2332461BA91398A4F8F0A1ADF86C306F
:104FB000ADF870A019F05BF913993846C4F8E48194
:104FC0004FF0290815F0ECFA039853222821FFF737
:104FD00040FD12232A462946039800934FF4C873D4
:104FE00014F0FDFF642301222946039800921A461B
:104FF00015F014F92946039815F0EFF80D23314602
:105000000398ADF8703015F05DFA0398A84914F0D4
:10501000D0FF2946039814F0FAFF0399384615F09B
:10502000BFFA049865222821FFF713FD4FF0FF32E5
:1050300004994846C4F80823A4F80C5318F09AFCC5
:1050400004F5457399E8070083E80700974B31465C
:1050500004981C932A23ADF8743018F025FF0499A6
:10506000384615F09DFA05983E224FF48871FFF7F7
:10507000F0FC4FF0FF3205994846C4F85023A4F8DD
:10508000545318F077FC04F5577399E8070083E848
:105090000700864B314605981C93ADF8748018F0D4
:1050A00003FF0599384615F07BFA41460D987422A6
:1050B000FFF7CFFC4FF0200231460D98ADF870207D
:1050C00019F0B7FA0D99384615F06AFA74220E985D
:1050D0004721FFF7BEFC0B2331460E98ADF8703028
:1050E00019F0A7FA0E99384615F05AFA74220F985B
:1050F0006721FFF7AEFC242331460F98ADF87030DE
:1051000019F097FA0F99384615F04AFA11233146EB
:105110000698ADF8703019F08CFA5323BD2206982A
:1051200040F2831100935D23FFF7A0FC2946069807
:1051300018F031F90699384615F032FA1D23314638
:105140000798ADF8703019F074FA2022434607989A
:1051500040F29D110092D622FFF788FC294607985D
:1051600018F019F90799384615F01AFA0898AF227D
:105170004FF4CB71FFF76DFC4FF0FF3208994846B2
:10518000C4F8A424A4F8A85418F0F4FB04F596631A
:1051900099E8070083E80700444B314608981C93C0
:1051A000ADF874A018F080FE0899384615F0F8F9AB
:1051B000742241461098FFF74CFC1F23314610988B
:1051C000ADF8703019F035FA1099384684F8E45487
:1051D00015F0E6F9742211984721FFF73AFC0A23EB
:1051E00031461198ADF8703019F023FA119938460C
:1051F00084F8205515F0D4F9742212986721FFF72E
:1052000028FC252331461298ADF8703019F011FAB8
:105210001299384684F85C5515F0C2F902233146DC
:105220005846ADF8703015F04DF94C235846102211
:105230007F2100934723FFF719FC26225846114689
:1052400018F07BFF584670226FF0700118F0FAFFDB
:105250002B46642229465846009514F0DFFF584635
:10526000322118F099FF262358461C211A4618F0BF
:105270004FFF5846012118F0EDFE5846012118F065
:10528000ECFE3846594684F8955515F089F92046C4
:105290001FB0BDE8F08F00BFAC5B0120B7970308DB
:1052A000F5970308B45B012027AA030804B5030897
:1052B0009434D3FF90F8293070B50446002B40D0C9
:1052C000408DA38D013080B29842608539D3258E00
:1052D000C01A628E0021E38D80B2521B666B12B23F
:1052E000B047054494F82820ABB22DB2AA4205D0AD
:1052F0000DBB2046FFF765FB84F82850A38DE18D98
:10530000628D0B449A421CD3002384F82930E38534
:105310001BF08AFD214604301BF0D3FDA06B80B149
:105320000368DB68984760B1A06B21460368BDE85D
:1053300070409B681847204684F82830FFF741FBEF
:10534000DCE770BD08B5FFF7B5FF08BDF8B51D4631
:1053500090F8293004460F4616462BB91BF064FD21
:10536000214604301BF056FE0023E68567866385E0
:1053700094F8283065632386012384F82930E36A92
:1053800013B92046FFF796FFF8BD000038B500F5C9
:10539000DE7304460D46994203D11BF045FDFEF72E
:1053A000BDFF04F59A739D4203D11BF03DFDFEF74E
:1053B000D5FF04F1D4039D420CD10021174B0F22DD
:1053C00004F55A70C4F8A013FFF7C0FF04F5FD639D
:1053D000C4F8A03304F16C039D420CD100210F4BA3
:1053E0000F2204F56970C4F8DC13FFF7AFFF04F671
:1053F0001803C4F8DC3304F1A0039D420CD1002152
:10540000064B0F2204F57870C4F81814FFF79EFFBE
:1054100004F64803C4F8183438BD00BFA1340208AC
:1054200000230F22FF2110B50446C0F8F434054BC9
:1054300000F2BC40FFF78AFF04F5FF63C4F8F434C0
:1054400010BD00BFA13402080021074B0F2210B588
:105450000446C0F8F41400F2BC40FFF777FF04F6EE
:105460000803C4F8F43410BDA134020808B50023C1
:105470000F22FF2100F55A708363024BFFF766FF8E
:1054800008BD00BFA134020800230F22FF2110B580
:105490000446C0F83035054B00F59F60FFF756FF16
:1054A00004F62803C4F8303510BD00BFA13402084B
:1054B0000021074B0F2210B50446C0F8301500F547
:1054C0009F60FFF743FF04F63803C4F8303510BD82
:1054D000A134020808B500230F22FF2100F56970EE
:1054E0008363024BFFF732FF08BD00BFA1340208FF
:1054F00000230F22FF2110B50446C0F86C35054B80
:1055000000F23450FFF722FF04F65803C4F86C355C
:1055100010BD00BFA13402080021074B0F2210B5B7
:105520000446C0F86C1500F23450FFF70FFF04F684
:105530006803C4F86C3510BDA134020808B5002317
:105540000F22FF2100F578708363024BFFF7FEFE08
:1055500008BD00BFA134020870477047704770470C
:1055600030B444680346C2689B68551004EB62007F
:10557000D20748BF625930BC48BFD35818470346CA
:10558000406830B19A681AB9D86800F001007047D5
:105590000120704730B444680346C2689B685510C8
:1055A00004EB6200D20748BF625930BC48BFD358F1
:1055B00018470346406830B19A681AB9D86800F0B5
:1055C000010070470120704710B5044610212FF0EC
:1055D000D0FF204610BD10B5044610212FF0C9FFA2
:1055E000204610BD10B504464FF4DB612FF0C1FF1B
:1055F000204610BD2DE9F04F04469DB000251DF05A
:105600003DFDA146DF4B26222946E56304F16C0BE4
:1056100049F8403B484631F0A7F94846FFF73AFAC7
:10562000D94B5846A5662364FF231AAE04F5847847
:1056300084F866304FF6FF77FFF73EFA04F1A003D7
:1056400004F5217A18460893FFF736FA04F1D403DB
:1056500018460993FFF730FA31464046ADF86870B6
:1056600017F0DEFE04F59A7318460293FFF740FA2E
:1056700004F5BE7318460393FFF73AFA04F5E27394
:1056800018460A9318F0AEFF04F500731846079306
:10569000FFF72EFABD4BC4F84852C4F8003204F5A7
:1056A000137318461193FFF707FAB94BA4F88072E9
:1056B0005046C4F84C3214F039FD04F55A731846BC
:1056C0000B93FFF737FA04F5697318460C93FFF74D
:1056D00031FA04F5787318460D93FFF72BFA04F2AC
:1056E0001C433146ADF868701846049317F098FED5
:1056F00004F589633146ADF868701846059317F0D4
:105700008FFE04F27443271D18460693FFF7F0F945
:1057100004F2BC4318460E93FFF70CFA04F59F639E
:1057200018460F93FFF706FA04F234531846109305
:10573000FFF700FA974A984B4846C4F85026294686
:10574000964AC4F83836C4F86026954A954BC4F892
:105750007026954AC4F84036C4F88026934A944B84
:10576000C4F89026934AC4F84836C4F8A026924A52
:10577000C4F85836C4F86836C4F87836C4F88836A1
:10578000C4F89836C4F8A836C4F8B026C4F83C4625
:10579000C4F84456C4F84C46C4F85456C4F85C46A1
:1057A000C4F86456C4F86C46C4F87456C4F87C4611
:1057B000C4F88456C4F88C46C4F89456C4F89C4681
:1057C000C4F8A456C4F8AC46C4F8B456C4F8B83605
:1057D000C4F8C836794B7A4AC4F8D0364FF4887387
:1057E000C4F8C0262A46C4F8BC46C4F8C456C4F857
:1057F000CC46C4F8D45600934FF4F073FFF736F953
:105800004FF07F4349463846A36604F5C76914F054
:10581000C7FE58466E222321FFF71BF94FF0010304
:105820003246584619A9ADF86830ADF8645018F002
:105830001EFD59463846C4F894904FF0010B14F001
:10584000AFFE6F2241210898FFF703F9324619A9EC
:105850000898ADF868B0ADF8645018F008FD0899E4
:105860003846C4F8C89014F09BFE6F226121099855
:10587000FFF7EFF8324619A90998ADF868B0ADF80E
:10588000645018F0F4FC09993846C4F8FC9014F000
:1058900087FE042340463146ADF8683018F0C9FE53
:1058A0004FF488732A464046294600934FF4F0731C
:1058B000FFF7DCF840462946DFF808B117F06BFD2A
:1058C000414638460DF1480814F06AFE6522282149
:1058D0000298FFF7BEF84FF07F4302994046C4F8A4
:1058E0006431A4F8685118F045F804F5B87398E8E5
:1058F000070083E80700272331460298ADF86C3093
:10590000CDF868B018F0D0FA0299384614F048FE85
:105910003E224FF488710398FFF79BF84FF07F43C6
:1059200003994046C4F8AC31A4F8B05118F022F8FD
:1059300004F5DC7398E8070083E807004FF02803BC
:1059400031460398ADF86C30CDF868B018F0ACFA79
:105950000399384614F024FE6FF007026FF0060139
:105960000A98FFF776F84FF0100318AA17A9ADF8B8
:105970005C30ADF8603016230A98ADF86430182317
:10598000009621E09CB80308F4CF030804B703088D
:105990007CCE03083D5D00086CB80308655D000817
:1059A000895D0008A95C0008A55D0008CD5D0008C0
:1059B00084B80308F15D00080D5E0008595E000818
:1059C000355E000804B50308ADF8683019AB18F06F
:1059D00074FD4FF005130A993846C4F8FC31C4F839
:1059E000EC9114F0DDFD21232E22C62107980093AF
:1059F0004A23FFF73BF84FF07F4307994046C4F82E
:105A00003032D4F80032A4F83452D3F884309847B6
:105A100004F50F7398E8070083E8070004F5AE6308
:105A20000293984B1B682BB9974B6021974A984873
:105A300030F0DCFC974B1B88102B03D8964B612170
:105A4000924AF4E7954B1021186801F035FD944A0D
:105A50000346642102981FF051F8029B31460798D3
:105A6000C4F848321123CDF868B0ADF86C3018F0A6
:105A70001BFA0799384614F093FD1198052240F25D
:105A80009F11FEF7E6FF0F23324619A9ADF86430E7
:105A90000E231198A4F88032ADF8683018F0E7FBB7
:105AA00011993846C4F874924FF0120914F078FD39
:105AB000504653222821FEF7CCFF2A46294650465D
:105AC0004FF4C873CDF8009014F089FA01232946E9
:105AD0005046009364231A4614F0A0FB2946504612
